:020000040800F2
:10000000600700200501000871180008331000087F
:100010006D180008BD090008D52800080000000080
:10002000000000000000000000000000592300084C
:10003000450B000800000000351F00086D24000873
:100040001F0100081F0100081F0100081F01000810
:100050001F0100081F0100081F0100081F01000800
:100060001F0100081F0100081F0100081F010008F0
:100070001F0100081F0100081F0100081F010008E0
:100080001F0100081F0100081F0100081F010008D0
:100090001F0100081F0100081F0100081F010008C0
:1000A0001F0100081F0100081F0100081F010008B0
:1000B000D12400081F0100081F0100081F010008CB
:1000C0001F0100081F0100081F0100081F01000890
:1000D0001F010008A9260008C52600081F01000806
:1000E0001F0100081F0100081F010008DFF810D0E1
:1000F00000F052FB0048004791360008AFF3008043
:10010000600700200648804706480047FEE7FEE7F4
:10011000FEE7FEE7FEE7FEE7FEE7FEE7FEE7FEE7B7
:1001200071240008ED00000840EA01039B0703D09A
:1001300009E008C9121F08C0042AFAD203E011F826
:10014000013B00F8013B521EF9D27047D2B201E0E8
:1001500000F8012B491EFBD270470022F6E710B5CC
:1001600013460A4604461946FFF7F0FF204610BD25
:1001700030B505462A460B4612F8010B13F8014B21
:1001800008B1A042F8D01CB1002802D06D1CF1E7E4
:10019000284630BDCAB2401E10F8011F8A4202D064
:1001A0000029F9D100207047421C10F8011B0029DA
:1001B000FBD1801A704710B5044600E0401C03785C
:1001C000002BFBD100E0401C521E04D311F8013B70
:1001D0000370002BF7D100210170204610BD80EA8A
:1001E000010210B502F00043400022D04A001FD0A7
:1001F000010E01EB1261C0F35600C2F3560240F447
:10020000000042F40002A0FB022000047F39140425
:1002100000D0401C50EA124001D44000491EC2B236
:100220000C0604EBD010401C4008802A02D003E0EA
:10023000002010BD20F00100002900DA0020184342
:1002400010BD30B480EA010202F0004530F00042F7
:1002500021F0004013D090B1C30DD40DC2F31601AC
:10026000C0F31600E41A41F4000140F400027D34AA
:10027000914201D3641C00E04900002C02DA30BC3A
:10028000002070474FF400000023914201D3891AE7
:10029000034340084FEA4101F7D151B1914202D1E5
:1002A0004FF0004105E002D24FF0010101E06FF094
:1002B000010103EBC450284430BC00F07EB8962303
:1002C0000022114600F082B820F00040C10DC0F3BA
:1002D000160040F400007F2901DA002070479629BB
:1002E00003DCC1F19601C8407047963988407047D9
:1002F00000F0004230F000400AD0C10D01F56071FD
:10030000C0F3160042EA0151C2084007114370478A
:100310000020014670470000002801DBC0F10040CA
:10032000002901DBC1F100418842704730B50B461E
:10033000014600202022012409E021FA02F59D4215
:1003400005D303FA02F5491B04FA02F52844151EE9
:10035000A2F10102F1DC30BD2DE9F05F054600207D
:1003600092469B4688460646814640241BE0284626
:1003700041464746224600F030FA53465A46C01AD4
:10038000914110D311461846224600F017FA2D1A53
:1003900067EB01084F4622460120002100F00EFACB
:1003A00017EB00094E41201EA4F10104DFDC484692
:1003B00031462A464346BDE8F09F0029A8BF704752
:1003C000401C490008BF20F00100704710B4B0FA8B
:1003D00080FC00FA0CF050EA010404BF10BC704726
:1003E00049B1CCF1200421FA04F411FA0CF118BF40
:1003F000012121430843A3EB0C01CB1D4FEA00610F
:100400004FEA102042BF002010BC704700EBC350E1
:1004100010440029A4BF10BC7047401C490008BF0D
:1004200020F0010010BC70472DE9FE4F804681EAA4
:100430000300C00F0C46009021F0004123F000455E
:10044000B8EB0200A94105D24046214690461C4621
:100450000B46024623F00040104347D0270DC7F358
:100460000A00C3F30A510290401A019040286BDA47
:10047000C3F3130040F4801B0098924620B1002380
:10048000D2EB030A63EB0B0B01985946C0F1400213
:10049000504600F093F906460D4650465946019ADB
:1004A00000F0ABF910EB08006141002487EA11521B
:1004B00084EAE7731A4340D0009A62B3019A012A92
:1004C0004FEA075215DC001B61EB02014FF00042BE
:1004D00002EA0752CDE90042001C41F58011324684
:1004E0002B4600F0ABF903B0BDE8F08F4046214643
:1004F000F9E7001B61EB0201001C41F580130018B5
:100500005B412018A2F5001747EB030140EAD570C4
:10051000B6196D4111E06D084FEA360645EAC0751F
:100520004FEA0752001B61EB0201001C41F58011EC
:1005300049084FEA30000019514132462B4603B0BA
:10054000BDE8F04F00F06BB9009801224000002395
:10055000D0EB020263EBE073009821464FEAE074AF
:10056000B8EB000061EB0401E9E783F000435BE7CF
:1005700081F0004158E72DE9FE4F81EA030404F0C1
:10058000004421F0004100944FF0000B23F00043A1
:1005900050EA01045ED052EA03045BD0C3F30A546C
:1005A000C1F30A552C44A4F2F3340194A0FB025485
:1005B000C1F3130141F48011C3F3130343F4801317
:1005C00001FB024400FB034E840A970A44EA81546B
:1005D00047EA8357A4FB076802958D0A05FB078548
:1005E0004FEA932C04FB0C542705029D4FEA065852
:1005F00047EA1637B5EB08056EEB070C870E920E2F
:1006000047EA811742EA8312A7FB0201B6EB0B010E
:1006100064EB00042B0D43EA0C335E1844EB1C50D2
:10062000DA465146E7FB0201C5F313044FEA0B33E8
:1006300043EA14534FEA0432019C43EA0603A4F14F
:100640000C040294009CCDE900B400F0F7F803B06C
:10065000BDE8F08F00200146F9E72DE9F04D81EA71
:10066000030404F0004B21F0004514464FF0000A4B
:1006700023F0004150EA050220D054EA01021DD0C7
:10068000C5F30A570246C5F31303C1F31300C1F3C0
:100690000A5640F4801543F48013A7EB0608101B9C
:1006A000D64608F2FD3873EB050002D308F10108C5
:1006B00001E092185B41B8F1000F03DA0020014617
:1006C000BDE8F08D00204FF48011064684460EE010
:1006D000171B73EB050705D3121B63EB05030643DA
:1006E0004CEA010C49084FEA300092185B4150EA8D
:1006F0000107EDD152EA030012D082EA040083EA36
:100700000501084305D0101BAB4106D2012200238E
:1007100006E000224FF0004302E06FF001025310A8
:100720001AEB06004CEB085110EB0A0041EB0B01F1
:10073000BDE8F04D00F073B8C1F30A52C1F31301E4
:1007400040F2FF3341F480119A4202DA0020014660
:10075000704740F233439A42A2F2334202DC5242E3
:1007600000F03BB800F02AB830B5041E71F1000467
:1007700004DB4FF00044404264EB0101141E73F1AE
:10078000000405DB1C464FF00043524263EB0403B8
:10079000994208BF904230BD064C074D06E0E06824
:1007A00040F0010394E8070098471034AC42F6D3B8
:1007B000FFF7A0FCF83F000818400008202A04DBDF
:1007C000203A00FA02F1002070479140C2F1200364
:1007D00020FA03F3194390407047202A04DB203AA3
:1007E00021FA02F00021704721FA02F3D040C2F151
:1007F00020029140084319467047202A06DBCB1798
:10080000203A41FA02F043EAE07306E041FA02F3CB
:10081000D040C2F12002914008431946704710B5FC
:10082000141E73F1000408DA401C41F10001921813
:100830005B411A4301D120F0010010BD2DE9F04DBC
:1008400092469B4611B1B1FA81F202E0B0FA80F211
:1008500020329046FFF7B2FF04460F4640EA0A00F6
:1008600041EA0B0153465A46084313D0114653EA56
:10087000010019D0C8F140025046FFF7AEFF05460F
:100880000E46504659464246FFF798FF084305D0AA
:10089000012004E020463946BDE8F08D00200543E4
:1008A00046EAE0762C4337430A986305E40AA0EB56
:1008B00008000022FD0A44EA47540A3002D500200D
:1008C0000146E9E7010510196941DDE9084500190C
:1008D0006941BDE8F04DA2E710B5044602F092FE72
:1008E000462002F065FE02F0B5FE012800D110BDE1
:1008F000204602F05DFE02F0ADFE012801D102208B
:10090000F5E702F097FE0020F1E710B500F0E0FBFC
:1009100000F004F81020FFF7DFFF10BD10B5012034
:10092000FFF7DAFF10BD10B5002402F06BFE472080
:1009300002F03EFE02F08EFE012801D1002010BD23
:1009400002F014FE044602F0DDFD02F00FFE00EBA3
:10095000042084B202F0F6FD02F06CFE2046EEE7C1
:1009600008B50121042001F0F7FA10208DF80300EA
:10097000C001ADF8000003208DF80200694604486C
:1009800000F068FA4FF40061014800F04BFB08BD2D
:100990000008014010B54FF40061024800F040FB30
:1009A00010BD00000008014010B54FF4006102487E
:1009B00000F038FB10BD00000008014000BFFEE75A
:1009C00008B50121042001F0C7FA04208DF80300C6
:1009D0001020ADF8000003208DF80200694602489F
:1009E00000F038FA08BD00000008014008B50121F8
:1009F000042001F0B1FA10208DF80300ADF80000DA
:100A000003208DF802006946014800F023FA08BD72
:100A1000000801402DE9F84F00F076F81021244835
:100A200000F000FB1021224800F0E8FAA8BB00BF4C
:100A300010211F4800F0E2FA0028F9D000BF102171
:100A40001B4800F0DBFA0128F9D000F035F8044625
:100A500000F032F8054600F02FF8064600F02CF8BA
:100A6000074600F029F800901021114800F0D8FA4C
:100A7000372002F0F9FC10210D4800F0D3FA60197C
:100A80003044C1190098814207D104F0FF0805F0F5
:100A9000FF0906F0FF0A07F0FF0B064880F8008008
:100AA00080F8019080F802A080F803B0BDE8F88FCC
:100AB000000801403200002070B5002500BF1CE096
:100AC00000BF10210F4800F099FA0028F9D01E202D
:100AD00002F0CAFC6006040E10210A4800F08EFAEB
:100AE000012801D144F0010400BF1021054800F0A5
:100AF00085FA0128F9D0681CC5B2082DE0DB204634
:100B000070BD00000008014010B5FFF76FFF102115
:100B10000B4800F087FA1E2002F0A6FC10210848BE
:100B200000F07EFA142002F079FC1021044800F055
:100B300079FA1E2002F098FCFFF742FF10BD00007A
:100B4000000801407047000010B580210348FFF7FE
:100B500004FB00200249088010BD00005C0000205A
:100B60003600002070B50546002400BF00F058F99B
:100B700080B90DA10E48FFF7FBFA044654B13A21A3
:100B80002046FFF707FB044614B1641C204670BDE5
:100B90000020FCE7052002F041FC281EA5F1010120
:100BA0008DB2E3D100BFF2E74950442C00000000B1
:100BB0005C00002008B50121042001F0CDF91020CF
:100BC0008DF803008002ADF8000003208DF80200CC
:100BD0006946334800F03EF900224FF48041304826
:100BE00000F022FAFA2002F019FC012291032C48AD
:100BF00000F01AFA4FF4FA7002F010FCFFF7A4FFAD
:100C000028A12A4801F016FF03E04FF4FA7002F021
:100C100005FC27A127A000F0B5F80028F5D127A1F1
:100C2000224801F007FF03E04FF4FA7002F0F6FBF0
:100C30001FA125A000F0A6F80028F5D126A11B4889
:100C400001F0F8FE03E04FF4FA7002F0E7FB18A1A0
:100C500025A000F097F80028F5D127A1134801F04E
:100C6000E9FE03E04FF4FA7002F0D8FB25A127A0BB
:100C700000F088F80028F5D12BA10C4801F0DAFE2D
:100C800003E04FF4FA7002F0C9FB2BA12CA000F096
:100C900079F80028F5D135A1044801F0CBFE08BD54
:100CA00000100140312E2041540D0A00003801404F
:100CB0004F4B000041540D0A00000000322E20432B
:100CC000574D4F44450D0A0041542B43574D4F4457
:100CD000453D310D0A000000332E2041542B43576F
:100CE000444843500D0A000041542B4357444843A5
:100CF000503D312C310D0A00342E2043574A4150CB
:100D00000D0A0000474F54204950000041542B4326
:100D1000574A41503D227474222C223232363638E2
:100D2000383838220D0A0000352E204349505354DC
:100D30004152540D0A000000434F4E4E45435400AB
:100D400041542B43495053544152543D2254435033
:100D5000222C223138332E3233302E34302E333998
:100D6000222C363030320D0A00000000362E20458D
:100D700053503832363620496E6974204F4B0D0A75
:100D8000000000002DE9F04104460D46C82620462B
:100D9000FFF70AFA87B23A4621460D4801F06EFE87
:100DA0000FE000F03DF848B929460A48FFF7E0F99E
:100DB00020B1FFF7C9FE0020BDE8F0810A2002F053
:100DC0002DFB301EA6F10101CEB2EAD10120F3E7DE
:100DD000004400405C00002030B589B004460D4658
:100DE000FFF7B2FE2A4608A101A801F061FE0AA1A0
:100DF00001A8FFF7C7FF20B92A462146074801F09E
:100E00003DFE09B030BD000041542B4349505345CD
:100E10004E443D25640D0A003E00000000440040A1
:100E20000A48008808B90120704708480088084926
:100E30000988884203D1002004490880F4E7034868
:100E40000088034908800120EEE7000036000020FA
:100E5000380000202DE9F041024600250026002040
:100E600000230024002791F803C00CF00F0591F82F
:100E700003C00CF0100CBCF1000F03D091F802C0BD
:100E80004CEA050591F800C0BCF1000F31D01468A0
:100E900000202BE04FF0010C0CFA00F3B1F800C079
:100EA0000CEA03069E4220D183004FF00F0C0CFA8F
:100EB00003F7BC4305FA03FC4CEA040491F803C0B1
:100EC000BCF1280F06D14FF0010C0CFA00FCC2F85F
:100ED00014C00AE091F803C0BCF1480F05D14FF0EF
:100EE000010C0CFA00FCC2F810C0401C0828D1D339
:100EF0001460B1F800C0BCF1FF0F34DD546800206D
:100F00002EE000F1080C4FF0010808FA0CF3B1F8DC
:100F100000C00CEA03069E4221D183004FF00F0C63
:100F20000CFA03F7BC4305FA03FC4CEA040491F8FD
:100F300003C0BCF1280F05D100F1080C08FA0CF829
:100F4000C2F8148091F803C0BCF1480F07D100F13A
:100F5000080C4FF0010808FA0CF8C2F81080401C89
:100F60000828CED35460BDE8F0810000F0B50A46F1
:100F7000002300240021002500F00046B6F1004FB8
:100F800002D11D4EF16901E01B4E7168C0F30345AB
:100F900083B200F44016B6F5401F08D121F070610D
:100FA000154E766826F07066134F7E6012E000F4EE
:100FB0008016B6F5801F06D1032606FA05F4A14374
:100FC00041F0706106E0460D360103FA06F6B143C2
:100FD00041F0706122B1460D360103FA06F6314345
:100FE00000F00046B6F1004F02D1034EF16101E07E
:100FF000014E7160F0BD000000000140024600207B
:1010000093680B400BB1012000E0002070470246BE
:101010000020D3680B400BB1012000E00020704796
:1010200041617047016170470AB1016100E04161AF
:10103000704700BFFEE7000010B54FF4A06000F05D
:1010400051FC02F0C9F94FF4E13001F045FC4FF4D6
:10105000E13001F099FC00F053F8FFF781FC012129
:10106000084600F079FF01211048FFF77FFF01F0EB
:101070002DF9FFF74AFC01F0D9FA00F0D3FC00F09B
:101080003BFC0BA10F4801F0D5FC0FA20121084643
:1010900000F096FDFFF788FC4FF4FA6002F0BEF90D
:1010A00000F02AFCFFF776FC10BD000000023000C3
:1010B000486172647761726520696E6974204F4B74
:1010C0000D0A000000380140496E6974204F4B0042
:1010D00008B50121082000F03FFFC020ADF8000056
:1010E00003208DF8020014208DF8030069460348A0
:1010F000FFF7B0FE02F09EFA08BD0000000C0140B0
:1011000008B50121102000F027FF10208DF8030002
:101110004002ADF8000003208DF802006946044843
:10112000FFF798FE4FF400510148FFF77BFF08BD21
:101130000010014010B54FF400510248FFF770FF56
:1011400010BD00000010014010B54FF400510848D8
:10115000FFF75DFF28B94FF400510548FFF762FF24
:1011600004E04FF400510248FFF75AFF10BD0000A1
:101170000010014070B5FFF7D6FB0646FFF79FF859
:1011800005460449FFF75DF804464FF07E51FFF72E
:1011900026F870BDCDCC8C3F10B50446207B0128CD
:1011A00002D1206802F086F9002020606060A06013
:1011B000207310BD0246002301230DE002F07F00E2
:1011C0000870D2092AB1087840F080000870491CE4
:1011D00001E0184670475B1C042BEFDD4FF0FF3039
:1011E000F8E770B504460E460025206898B901203E
:1011F0002073304602F0C4FB20602068E0B100207C
:101200006060A66003E00020216848556D1CA0685E
:10121000A842F8D810E00220207303E000202168E3
:1012200048556D1CA068A842F8D800206060A068EE
:10123000B04201D20020206070BD00002DE9FF4FB8
:1012400083B082468B469146159C00250020029073
:101250000F2701904846FEF7A7FF0FFA80F8B9F173
:10126000000F03D1012007B0BDE8F08F08F10200A4
:10127000384487B2109808B145F00205129878B149
:1012800045F004051298FEF78FFFC0B20290139844
:10129000FEF78AFF01460298001D0844384487B2D1
:1012A000119820B1012804D0022808D104E000BF21
:1012B00007E045F00C0504E045F0140501E00220CC
:1012C000D1E700BF149808B145F02405BAF1000F2A
:1012D00002D0BBF1000F01D10320C4E745F0C005E7
:1012E0005046FEF761FF06465846FEF75DFF304464
:1012F000001D384487B239462046FFF772FF206848
:1013000008B90420AFE739462068FEF726FF102110
:101310006268501C606020688154D4E90023D118B1
:10132000781FFFF747FF00B201900198002804DA08
:101330002046FFF731FF052095E7616801980844D2
:10134000606000216268501C606020688154042144
:101350006268501C6060206881544D216268501C96
:1013600060602068815451216268501C6060206870
:10137000815454216268501C606020688154626806
:10138000501C60602068815404216268501C6060B9
:10139000206881546168481C606020684554069844
:1013A000010A6268501C6060206881540698C1B2CE
:1013B0006268501C606020688154C8F3072162682D
:1013C000501C6060206881546268501C6060206816
:1013D00000F80280D4E90012881842464946FEF718
:1013E000EAFE60684044606005F00400B8B300267F
:1013F000139808B938A013901298FEF7D5FE86B25C
:10140000310A6268501C6060206881546268501C18
:10141000606020688654D4E9001288183246129918
:10142000FEF7C9FE6068304460601398FEF7BCFEAA
:1014300086B2310A6268501C60602068815462681C
:10144000501C606020688654D4E900128818324627
:101450001399FEF7B0FE60683044606000BF05F08D
:101460008000C8B15046FEF79FFE86B2310A62681E
:10147000501C6060206881546268501C6060206865
:101480008654D4E90012881832465146FEF793FE7E
:1014900060683044606000BF05F04000C8B1584645
:1014A000FEF782FE86B2310A6268501C60602068D6
:1014B00081546268501C606020688654D4E9001230
:1014C000881832465946FEF776FE60683044606000
:1014D00000BF0020C7E60000000000002DE9FF4F1C
:1014E00083B0834617469946139C002500260020AA
:1014F000029001908046BBF1000F03D1012007B09C
:10150000BDE8F08F00260AE00498805D232803D010
:101510000498805D2B2801D10220F0E7761C049806
:10152000805D0028F0D148F03008119808B148F0EB
:10153000010806EB0900851C109820B1012804D091
:1015400002280AD105E000BF09E048F00208AD1CFE
:1015500005E048F00408AD1C01E00320CFE700BF20
:101560008FB33878022821D14FF0000A00BF5046CF
:101570000AF1010A385C7D28F9D1AAF1030A0AF1BF
:10158000070002900298A9EB000AE81CA0EB0A01F0
:101590002046FFF726FE206808B90420AFE7EA1CC2
:1015A000A2EB0A012068FEF7D8FD19E0691D20466C
:1015B000FFF717FE206808B90420A0E7691D20681E
:1015C000FEF7CBFD0CE0FFE7691D2046FFF709FEA3
:1015D000206808B9042092E7691D2068FEF7BDFD68
:1015E0006168481C6060206800F80180D4E900024E
:1015F00081182846FFF7DEFD01900198002804DAE3
:101600002046FFF7C9FD052079E761680198084485
:101610006060C6F307216268501C606020688154D6
:101620006268501C606020688654D4E900128818F3
:1016300032460499FEF7BFFD606830446060109840
:1016400060B14FEA1B216268501C606020688154C1
:101650006268501C6060206800F802B0C7B138783A
:1016600002280BD1D4E9001288183946029AFEF7F5
:101670005BFD616802980844606009E0D4E90012EB
:1016800088184A463946FEF74FFD60684844606056
:10169000002034E72DE9FF5F8046174699460E9CEF
:1016A0000026B246B3460025B8F1000F03D1012051
:1016B00004B0BDE8F09F0BE057F8250008B9022000
:1016C000F6E757F82500FEF76FFD0644681CC5B223
:1016D0004D45F1DB09EB4900801C00EB060A0AF1DD
:1016E00005012046FFF77DFD206808B90320DFE7EC
:1016F00082216268501C606020688154D4E9000235
:1017000081185046FFF756FD0FFA80FBBBF1000F22
:1017100004DA2046FFF740FD0420C9E7606858441A
:1017200060604FEA18216268501C60602068815434
:101730006268501C6060206800F80280002524E088
:1017400057F82500FEF730FD0646C6F3072162680C
:10175000501C6060206881546268501C6060206882
:101760008654D4E90023D01857F825103246FEF7E6
:1017700022FD6068304460600198C1B26268501C0C
:10178000606020688154681CC5B24D45D8DB0020DC
:101790008EE7F0B504460D46264601230020106072
:1017A000002114E0775C07F07F07106807FB030057
:1017B0001060705C00F0800008B9481CF0BDDB01CF
:1017C000B3F5001F02D36FF00100F7E7491CA942EF
:1017D000E8DB4FF0FF30F1E701464878022801D0FE
:1017E00001207047887810B18878012801D1C87825
:1017F000F7E7FF20F5E70000F8B50446FF2720785B
:101800000511012D01DB0E2D01DD3846F8BD032D3C
:1018100024D1002000906A460421601CFFF7B9FF24
:101820002044461C0098022803D3207800F00100D1
:1018300008B1FF20EAE77078317840EA0120801C87
:101840000099884201D9FF20E0E706A1B01CFEF70D
:101850008FFC08B10F2700E0032700E02F46384631
:10186000D4E70000246372657100000000BFFEE74A
:101870007047000070B5002100230F22C47804B324
:10188000154C246804F4E064C4F5E064210AC1F155
:101890000403CA40447804FA03F1847814402143D5
:1018A00009010E4C0678A155047804F01F050124A7
:1018B000AC4005786D11AD0005F1E025C5F800419B
:1018C00009E0047804F01F050124AC40044D0678BB
:1018D000761145F8264070BD0CED00E000E400E014
:1018E00080E100E002490143024A116070470000B4
:1018F0000000FA050CED00E070B500240EE00021B8
:10190000204600F0F0F8002504E0002000F07CF90B
:10191000681CC5B2802DF8DB601CC4B2082CEEDB5D
:1019200070BD000008B50121082000F015FB102053
:101930008DF8030003208DF802004FF48040ADF8CD
:10194000000069460A48FFF785FA4FF40040ADF8F9
:10195000000069460648FFF77DFA0122910304481A
:10196000FFF762FB0122D1030148FFF75DFB08BDD1
:10197000000C014070B50546002415E08020204190
:1019800000EA05024FF400410E48FFF74DFB01222B
:1019900091030C48FFF748FB00224FF480410948AF
:1019A000FFF742FB601CC4B2082CE7DB0122910365
:1019B0000448FFF739FB00224FF480410148FFF74C
:1019C00033FB70BD000C014010B50122D1030A4861
:1019D000FFF72AFB012291030748FFF725FB0022AE
:1019E0004FF400410448FFF71FFB00224FF48041F1
:1019F0000148FFF719FB10BD000C014010B5002293
:101A00004FF400410648FFF70FFB01229103044801
:101A1000FFF70AFB0122D1030148FFF705FB10BDC8
:101A2000000C014070B5002406E0002500E06D1CAC
:101A3000B5F57A7FFBD3641CB4F57A7FF5D3FFF755
:101A400071FFAE2000F0D0F8D52000F0CDF8802056
:101A500000F0CAF8A82000F0C7F83F2000F0C4F852
:101A6000D32000F0C1F8002000F0BEF8402000F0C4
:101A7000BBF8A12000F0B8F8C82000F0B5F8DA20D3
:101A800000F0B2F8122000F0AFF8812000F0ACF8BE
:101A9000CF2000F0A9F8D92000F0A6F8F12000F03E
:101AA000A3F8DB2000F0A0F8302000F09DF8A4207F
:101AB00000F09AF8A62000F097F88D2000F094F836
:101AC000142000F091F8AF2000F08EF8FFF714FF1B
:101AD00070BD10B50246012000E050430B1EA1F17D
:101AE0000101FAD110BD70B505460C4645F0B000B5
:101AF00000F07AF8102141EA141000F075F804F0B3
:101B00000F0000F071F870BD2DE9F04105460E465A
:101B10001746721ED206110E6A1E5206100EFFF7ED
:101B2000E2FF002409E0A7F12001134A02EB0111B2
:101B3000085D00F069F8601CC4B2082CF3DB721E6B
:101B4000D206110E6A1E012303EB4202D0B2FFF748
:101B5000CAFF00240BE0A7F12001074A02EB0112A3
:101B600004F10801505C00F04FF8601CC4B2082C6E
:101B7000F1DBBDE8F0810000EC3900082DE9F04709
:101B800080460E4617461D46002415E0281B411EC0
:101B90000A20FFF79EFFB7FBF0F00A21B0FBF1F23D
:101BA00001FB120000F130093019C1B24A4640462B
:101BB000FFF7AAFF601CC4B2AC42E7DBBDE8F087C8
:101BC0002DE9F04107460E461546002407E02A5D40
:101BD0003019C1B23846FFF797FF601CC4B2285DC8
:101BE0000028F4D1BDE8F08110B50446FFF7ECFE03
:101BF0007820FFF7BFFE0020FFF7BCFE2046FFF76E
:101C0000B9FEFFF7FBFE10BD10B50446FFF7DCFE82
:101C10007820FFF7AFFE4020FFF7ACFE2046FFF72D
:101C2000A9FEFFF7EBFE10BD30B58BB0002007908A
:101C3000089009900A90012530A033A333A235A162
:101C40000090404800F0F6FE07A8002102910391A1
:101C5000CDE9041000912B0228A201912AA12BA00A
:101C6000FFF7ECFA002842D1089A91B20798FFF7E3
:101C7000B3F8FA20FEF776FF0446002C33D0204656
:101C8000FFF7BAFD02282ED12046FFF7A5FD062852
:101C900023D2DFE800F003090E13181D2AA12948FA
:101CA00000F0C8FE00251DE02CA1264800F0C2FE71
:101CB00018E031A1234800F0BDFE13E037A1214810
:101CC00000F0B8FE0EE03DA11E4800F0B3FE09E0B2
:101CD00043A11C4800F0AEFE04E04CA1194800F0FE
:101CE000A9FE00BF00BF07A8FFF756FA03E04EA108
:101CF000144800F09FFE28460BB030BD313038321A
:101D0000383139323532000030303200363034313B
:101D1000343600004F6E654E65745F4465764C69DD
:101D20006E6B0D0A50524F49443A2025732C0941DD
:101D30005549463A2025732C0944455649443A25CD
:101D4000730D0A0000380140546970733A09C1AC40
:101D5000BDD3B3C9B9A60D0A000000005741524EC9
:101D60003A09C1ACBDD3CAA7B0DCA3BAD0ADD2E9A1
:101D7000B4EDCEF30D0A00005741524E3A09C1AC02
:101D8000BDD3CAA7B0DCA3BAB7C7B7A8B5C4636C44
:101D900069656E7469640D0A000000005741524E77
:101DA0003A09C1ACBDD3CAA7B0DCA3BAB7FECEF125
:101DB000C6F7CAA7B0DC0D0A000000005741524E1A
:101DC0003A09C1ACBDD3CAA7B0DCA3BAD3C3BBA781
:101DD000C3FBBBF2C3DCC2EBB4EDCEF30D0A0000D3
:101DE0005741524E3A09C1ACBDD3CAA7B0DCA3BA21
:101DF000B7C7B7A8C1B4BDD328B1C8C8E7746F6B63
:101E0000656EB7C7B7A8290D0A0000004552523ABF
:101E100009C1ACBDD3CAA7B0DCA3BACEB4D6AAB4AC
:101E2000EDCEF30D0A0000005741524E3A094D51D4
:101E300054545F5061636B6574436F6E6E65637479
:101E4000204661696C65640D0A00000070B588B0B9
:101E500005460C4600200490059006900790234606
:101E60002A4610A1174800F0E5FD2046FEF79CF930
:101E7000064604A80121002200923346CDE9012143
:101E80000390224629460A20FFF728FB38B9059A15
:101E900091B20498FEF7A0FF04A8FFF77DF908B0FF
:101EA00070BD00005075626C69736820546F706972
:101EB000633A2025732C204D73673A2025730D0A51
:101EC000000000000038014070B586B004460D46A1
:101ED00000260020029003900490059007E054F83B
:101EE00026200DA1124800F0A5FD701CC6B2AE421E
:101EF000F5DB02A82B462246022100901420FFF7B2
:101F0000C9FB38B9039A91B20298FEF765FF02A89F
:101F1000FFF742F906B070BD537562736372696270
:101F20006520546F7069633A2025730D0A00000024
:101F3000003801407047000029B1064AD2690243C7
:101F4000044BDA6104E0034AD2698243014BDA614F
:101F5000704700000010024029B1064A926902430E
:101F6000044B9A6104E0034A92698243014B9A61EF
:101F7000704700000010024030B50021002200240C
:101F800000232D4D6D6805F00C0121B1042905D009
:101F9000082923D105E0294D056022E0274D056081
:101FA0001FE0254D6D6805F47012234D6D6805F432
:101FB0008034022505EB92421CB9214D5543056042
:101FC0000BE01D4D6D6805F400351DB11C4D5543EA
:101FD000056002E0194D5543056002E0174D0560AC
:101FE00000BF00BF144D6D6805F0F0010909154DE3
:101FF0006B5C0568DD4045600F4D6D6805F4E06180
:10200000090A104D6B5C4568DD4085600A4D6D68BE
:1020100005F46051C90A0B4D6B5C4568DD40C56035
:10202000054D6D6805F44041890B074D6B5CC56833
:10203000B5FBF3F5056130BD0010024000127A00D7
:1020400000093D00140000202400002008B54FF4D2
:102050000040ADF8000001208DF8020004208DF84A
:10206000030069460148FEF7F5FE08BD000801407F
:1020700008B54FF40040ADF8000010208DF80300C3
:1020800003208DF8020069460148FEF7E3FE08BD13
:102090000008014008B501210420FFF75DFF4FF45F
:1020A0008050ADF8000010208DF8030003208DF85B
:1020B000020069460548FEF7CDFE4FF40040ADF83A
:1020C000000069460148FEF7C5FE08BD0008014052
:1020D00010B500200A490860FFF7CAFF002009492F
:1020E000C1F8BC01142001F0BFF9012004490860C7
:1020F000142001F0B9F900200249C1F8B00110BD67
:10210000B00121420000214210B500200A490860B8
:10211000FFF7AEFF01200949C1F8BC01142001F00E
:10212000A3F9012004490860142001F09DF9002062
:102130000249C1F8B00110BDB001214200002142A6
:1021400070B505460024FFF781FF00261AE0002045
:1021500011490860142001F087F901200F49C1F8E6
:10216000B0014FF6FF7000EA44044FF400410C4800
:10217000FEF744FF08B1601C84B2142001F074F92A
:10218000701CC6B2082EE2DB15B9FFF7BDFF01E0F7
:10219000FFF79EFF204670BDB001214200002142A2
:1021A0000008014070B50446FFF762FF00201449A3
:1021B000086000251EE0E00920B1012010490C3123
:1021C000086003E000200E490C3108606006040E30
:1021D000142001F049F9012009490860142001F098
:1021E00043F900200749C1F8B001142001F03CF97F
:1021F000681CC5B2082DDEDB142001F035F970BD76
:10220000B00121420000214210B5FFF731FF01204B
:10221000094908600949C1F8B001142001F024F906
:10222000002005490860142001F01EF90020034930
:10223000C1F8B00110BD0000BC01214200002142E4
:1022400010B5FFF715FF0020084908600849C1F8DC
:10225000BC01142001F008F9012004490860044978
:10226000C1F8BC01142001F0FFF810BDB0012142FB
:102270000000214210B50024FFF7E8FE01201049BC
:1022800008600A2001F0F0F801200E49C1F8B00101
:102290000A2001F0E9F807E0601CC4B2FA2C03DD63
:1022A000FFF7CEFF012010BD4FF400410648FEF7B6
:1022B000A5FE0028F0D102490C39086000BFF2E702
:1022C000BC012142000021420008014010B5FFF787
:1022D000E1FE0321202000F025F810BD70B5FFF7C6
:1022E00093FFB120FFF75EFFFFF7C4FF0120FFF768
:1022F00027FF044624020120FFF722FF04440120A7
:10230000FFF71EFFC5B200BF24020120FFF718FF30
:10231000044424020020FFF713FF0444FFF790FF5A
:10232000204670BD70B505460C46FFF76DFFB02026
:10233000FFF738FFFFF79EFF2846FFF733FFFFF751
:1023400099FF2046FFF72EFFFFF794FFFFF778FF76
:10235000642001F063F870BD704710B500F002F81A
:1023600010BD00000CB500200190009033480068BB
:1023700040F480303149086000BF3048006800F404
:10238000003000900198401C0190009818B9019805
:10239000B0F5A06FF1D12948006800F4003010B109
:1023A0000120009001E0002000900098012843D116
:1023B0002348006840F01000214908600846006882
:1023C00020F0030008600846006840F00200086042
:1023D0001A484068194948600846406848600846FD
:1023E000406840F4806048600846406820F47C10F3
:1023F00048600846406840F4E810486008460068B5
:1024000040F08070086000BF0C48006800F0007069
:102410000028F9D00948406820F0030007494860C7
:102420000846406840F00200486000BF034840682A
:1024300000F00C000828F9D10CBD0000001002408B
:1024400000200240042808D14FF0E021096941F042
:1024500004014FF0E022116107E04FF0E02109692B
:1024600021F004014FF0E022116170477047000035
:1024700010B51348006840F0010011490860084693
:102480004068104908400E494860084600680E49F7
:1024900008400B4908600846006820F48020086066
:1024A0000846406820F4FE0048604FF41F00886032
:1024B000FFF753FF4FF000600449086010BD0000B3
:1024C000001002400000FFF8FFFFF6FE08ED00E0FC
:1024D00010B50121880700F037F801281CD10F48FA
:1024E0000068401C0D490860B0F57A7F01D3FEF703
:1024F0002BFE0A480068401C0849086041F28831F8
:10250000884205D30020054908600120044908805D
:102510000121880700F009F810BD00002C00002000
:1025200030000020CA4302827047CA4302827047CB
:1025300021B1028842F00102028004E002884FF6D5
:10254000FE731A400280704730B502460020002317
:102550000024158A05EA0103958905EA010413B1EF
:102560000CB1012000E0002030BD1AB183890B437B
:10257000838102E083898B438381704701894FF611
:10258000F872114001817047002202881D4B984269
:102590000ED01D4B98420BD0B0F1804F08D01B4B92
:1025A000984205D01A4B984202D01A4B984204D157
:1025B0004FF68F731A404B881A43174B984207D037
:1025C000164B984204D04FF6FF431A40CB881A436B
:1025D00002808B8883850B8803850A4B98420BD039
:1025E000094B984208D00E4B984205D00D4B9842AB
:1025F00002D00D4B984201D10B7A038601238382CE
:1026000070470000002C01400034014000040040ED
:1026100000080040000C0040001000400014004082
:102620000040014000440140004801401FB5012125
:102630000846FFF781FC4FF08040FFF79FFF002026
:10264000ADF80A00ADF8060040F2E730ADF808003A
:102650004720ADF8040000208DF80C0001A94FF0D0
:102660008040FFF791FF01218807FFF75BFF012200
:1026700011469007FFF779FF4FF4A060FFF732F99A
:102680001C208DF8000001208DF8030002208DF839
:10269000010001208DF802006846FFF7EBF80121E8
:1026A0008807FFF745FF1FBD10B540F225510448CC
:1026B00000F050F818B12021014800F029F810BDB1
:1026C0000038014010B540F225510E4800F042F8A4
:1026D000B0B10D480088802802D300200A49088044
:1026E0000848001D0088C1B2074802880088401CC5
:1026F000054B1880054881542021024800F008F855
:1027000010BD000000440040360000205C000020A6
:1027100001F40072B2F5007F00D100BFCA4302800D
:10272000704721B1828942F40052828104E082899B
:102730004DF6FF731A408281704702460020B1F5C2
:10274000007F00D100BF13880B400BB1012000E0D7
:102750000020704770B502460024002300250020A9
:1027600040F66A16B14200D100BFC1F3421501F034
:102770001F03012606FA03F3012D02D19689334087
:1027800006E0022D02D1168A334001E0968A3340DA
:102790000C12012606FA04F41688344013B10CB169
:1027A000012000E0002070BDF0B5034600240026A3
:1027B0000025002040F66A17B94200D100BF184634
:1027C000C1F3421401F01F06012707FA06F5012C98
:1027D00001D10C3004E0022C01D1103000E01430A3
:1027E0001AB107682F43076002E00768AF4307602C
:1027F000F0BD00002DE9F04786B005460E460024E6
:10280000A24600BFA1460027B08900B100BF2F46F5
:102810002C8A4CF6FF700440F08804432C82AC896B
:102820004EF6F3100440B08831890843718908439B
:102830000443AC81AC8A4FF6FF400440B0890443A6
:10284000AC8201A8FFF798FB1F48874202D1DDF850
:1028500010A001E0DDF80CA0A88900F4004040B110
:102860000AEBCA0000EB0A1031684900B0FBF1F82E
:1028700007E00AEBCA0000EB0A1031688900B0FBE0
:10288000F1F86420B8FBF0F004012009642101FB99
:102890001089A88900F4004040B1322000EBC90043
:1028A000B0FBF1F000F00700044308E0322000EB39
:1028B00009106421B0FBF1F000F00F0004432C81FB
:1028C00006B0BDE8F087000000380140C1F30802FF
:1028D0008280704700BFFEE710B586B00446012134
:1028E0000420FFF739FB01218803FFF735FB18208F
:1028F0008DF817004FF40070ADF8140003208DF828
:10290000160005A91E48FEF7A5FA04208DF8170049
:102910000002ADF8140003208DF8160005A9184830
:10292000FEF798FA01940020ADF810000C20ADF8E5
:102930000E000020ADF80C00ADF80A00ADF808005C
:1029400001A91048FFF756FF01210E48FFF7E9FEE5
:10295000012240F225510B48FFF726FF25208DF874
:10296000000001208DF8030000208DF801000220F6
:102970008DF802006846FEF77DFF06B010BD00002E
:10298000000801400038014010B586B0044601211E
:102990000420FFF7E1FA01214804FFF7CDFA1820DF
:1029A0008DF817000420ADF8140003208DF81600F0
:1029B00005A91E48FEF74EFA04208DF817000820DE
:1029C000ADF8140003208DF8160005A91748FEF78E
:1029D00041FA01940020ADF810000C20ADF80E0073
:1029E0000020ADF80C00ADF80A00ADF8080001A910
:1029F0000F48FFF7FFFE01210D48FFF792FE01226D
:102A000040F225510A48FFF7CFFE26208DF800003E
:102A100001208DF8030000208DF801008DF80200E0
:102A20006846FEF727FF06B010BD00000008014011
:102A3000004400400FB430B5CBB0054601AC50A8FF
:102A400000904FF4947101A8009B4F9A00F044F855
:102A5000002000900BE014F8011B2846FFF736FF1A
:102A600000BF40212846FFF768FE0028F9D02078F3
:102A70000028F0D14BB030BC5DF814FB2DE9F041DB
:102A800007460C46154600260DE014F8011B384693
:102A9000FFF71CFF00BF40213846FFF74EFE00281D
:102AA000F9D0701C86B2AE42EFDBBDE8F0810000C9
:102AB0000FB4084B10B504A902AA039800F0F8F867
:102AC000044602A9002000F081FC204610BC5DF8FD
:102AD00014FB0000CD3300087CB50C001D461646E3
:102AE000014601D0601E00E00020CDE90010064B39
:102AF0006A462946304600F0DBF8002C02D0009AE6
:102B0000002111707CBD0000B733000802E008C846
:102B1000121F08C1002AFAD170477047002001E057
:102B200001C1121F002AFBD1704700002DE9FF5F91
:102B300082B00021DDE90430020DDDF840B003432E
:102B400018D044F61050A2F2FF32424315141198E7
:102B500001281FD0A5EB0B00401C5FEA000A4FF0D4
:102B600000064E4FDFF83891B046504615D5CAF1F1
:102B7000000413E0119801244AA3012801D16FEA4F
:102B80000B010298119AC0E90031C0E9024206B077
:102B9000BDE8F09FCBF10000DFE704460021404A8A
:102BA000491842EB0450CDE9001012E0E00707D0CD
:102BB00032463B4640464946FDF7DDFC80468946A5
:102BC00032463B4610461946FDF7D5FC06460F46F1
:102BD0006410002CEAD1DDE90401DDE90023BAF13B
:102BE000000F06DAFDF7C7FC42464B46FDF7C3FC73
:102BF00005E0FDF732FD42464B46FDF72EFD04464B
:102C00000E460022284BFDF7AFFD03D84FF0FF30F2
:102C1000014607E00022254B20463146FDF704FC23
:102C2000FDF78AFD102409E0002C0ADB0A220023AC
:102C3000FDF792FB039B30321A55641E50EA0102E5
:102C4000F2D1641C039AC4F111031444119A012AAD
:102C500003D0012208430DD10AE0084304D000202C
:102C60004FF0110B119072E7A3EB0B056D1E0DE0F9
:102C70005B4504DD4FF0000205F1010504E003DAD5
:102C80004FF00002A5F10105002AECD0029811993D
:102C9000C0E90231C0E9004579E7000000001440B6
:102CA0000000F03F300000000000F0430000E03F73
:102CB0002DE9FF4F95B09A46884606460025EEE17D
:102CC000252877D100242746F94A0121039400E002
:102CD000044316F8013F203B01FA03F01042F7D1FC
:102CE00030782A2811D06FF02F033078A0F130020D
:102CF000092A16D8039A44F0020402EB820203EB7D
:102D000042021044761C0390EFE758F8042B03921C
:102D1000002A03DA504244F40054039044F00204C1
:102D2000761C30782E2816D116F8010F44F00404D2
:102D30002A280DD06FF02F023078A0F13003092B34
:102D400009D807EB870302EB4303C718761CF3E7A8
:102D500058F8047B761C30786C280FD006DC4C28A1
:102D600017D068280DD06A2814D104E0742810D038
:102D70007A280FD10DE044F400140AE044F48014E2
:102D800001E044F440147278824202D104F58014C8
:102D9000761C761C307866280BD013DC582877D048
:102DA00009DC002875D04528F6D04628F4D04728FD
:102DB0001AD193E118E0632835D0642879D06528CA
:102DC00012D18BE1702873D008DC6728F1D0692814
:102DD0006FD06E280DD06F2806D1ACE073282CD0B0
:102DE000752874D0782853D05246179990476D1C97
:102DF00054E1C4F30250022809D003280DD0D8F8BA
:102E0000001004280DD00D6008F1040846E1D8F840
:102E10000010EA17C1E90052F6E7D8F800100D805B
:102E2000F2E70D70F0E718F8041B8DF80010002091
:102E30008DF80100EB46012003E058F804BB4FF089
:102E4000FF3061074FF0000102D40DE009F10101EC
:102E50008946B9420FDA8145F8DB1BF809100029D1
:102E6000F4D108E009F1010189468142FADB1BF83F
:102E700009100029F6D103985346A0EB0907214613
:102E80003846179A00F080FA284400EB090507E05D
:102E900044E008E10DE01BF8010B524617999047FA
:102EA000B9F10109F7D2534621463846179AF2E0A4
:102EB00039E00A21C4F302524FF0000B0091022ABC
:102EC00006D058F8040BC117032A09D00AE023E002
:102ED00008F1070020F00702F2E80201904605E041
:102EE00000B2C117042A01D140B2C117002906DA85
:102EF0000A460021404261EB02012D2202E0220538
:102F000004D52B228DF80420012203E0E20701D032
:102F10002022F7E7914657E00A2100E010214FF008
:102F2000000B00910BE010214FF0000B44F0040463
:102F30000827009103E008204FF0000B0090C4F335
:102F40000252022A05D058F8040B0021032A08D0A7
:102F500008E008F1070020F00702F2E802019046BD
:102F600003E080B2042A00D1C0B24FF0000922076A
:102F70002AD53278702A07D0DDF800C08CF0100C0A
:102F80005CEA0B0C05D00EE040228DF804200122F3
:102F900008E050EA010306D030238DF804308DF8A4
:102FA000052002229146009B83F0080353EA0B039D
:102FB0000AD150EA010201D1620705D530228DF80D
:102FC00004204FF001097F1E3278582A04D039A21C
:102FD0000C920CAA02920BE03BA2F9E75B46009A26
:102FE000FDF7BAF90C9B9B5C029A521E0292137079
:102FF00050EA0102F2D1029804A9081A00F1200B4C
:10300000600702D524F4803400E001275F4502DD2B
:10301000A7EB0B0000E0002000EB0B0100900398F1
:103020004944401A0390E00306D453462146179AB8
:10303000039800F0A9F90544002706E001A85246CC
:10304000C05D179990476D1C7F1C4F45F6DBE00370
:103050000CD553462146179A039800F095F905447C
:1030600004E030205246179990476D1C0099481E85
:1030700000900029F5DC08E0029802995246007899
:10308000491C0291179990476D1CBBF10001ABF1EF
:10309000010BF1DC5BE100F065F90544761C30784A
:1030A00000287FF40DAE19B02846BDE8F08F00006F
:1030B000092801003031323334353637383961620E
:1030C00063646566000000003031323334353637D2
:1030D000383941424344454600000000600700D4AF
:1030E000062708F1070020F00700F0E802238046D9
:1030F00003F0004C5FEA0C0001D097A009E0200526
:1031000001D596A005E0E00701D095A001E0AFF25F
:103110004C001390307823F0004365280CD006DC77
:10312000452809D046281DD047287FD13BE0662896
:1031300018D067287AD136E00021112F01DB112049
:1031400000E0781CCDE9000104A90CA8FFF7EEFC13
:10315000DDE90D010C9A4FF0000B07F10109109207
:1031600000914EE04FF000400097CDE9011004A916
:103170000CA8FFF7DBFCDDE90D020C9B0F994FF06B
:10318000000B91461093009211B9791C00EB0109D4
:10319000B7EB090003D4C0F1FF3B07F10109A9EB2C
:1031A0000700019042E0012F00DA01270021112FD2
:1031B00001DD112000E03846CDE9000104A90CA88A
:1031C000FFF7B4FCDDE90D010C9A00914FF0000B04
:1031D000B946109221070FD4009A4A4503DA914666
:1031E00001E0A9F10109B9F1010F05DD109AA9F17A
:1031F0000101515C3029F4D0B84202DA10F1040F19
:1032000003DA0121CDE9011010E0002803DC83443A
:10321000A9EB000102E0411C494500DD8946A0EB15
:103220000B00401C01904FF000400290200705D495
:103230000198484502DB4FF0FF30019000208DF8E7
:103240004B0002980DF14B07B0F1004F25D0022042
:103250000C902B200D90029800280CDA404202902E
:103260002D200D9007E00A210298FDF75FF830311C
:10327000029007F8011D0C99481E0C900029F2DC01
:1032800002980028EFD1791E0D980870307800F070
:10329000200040F0450007F8020D11A8C01BC01D1A
:1032A00002901398007800B1012000EB0901019809
:1032B00001EBE071029801440398401A401E03900C
:1032C000E00306D453462146179A039800F05CF8B1
:1032D00005441398007818B15246179990476D1C11
:1032E000E00323D553462146179A039800F04CF883
:1032F00005441BE0BBF1000F07DB0098584504DDD7
:103300001098179910F80B0001E0179930205246D9
:10331000904701980BF1010B401E05F1010501904A
:1033200004D12E205246179990476D1CB9F1000127
:10333000A9F10109DEDC05E017F8010B52461799E7
:1033400090476D1C0299481E02900029F4DC5346F8
:103350002146179A03989EE62D0000002B000000DE
:10336000200000002DE9F041044600251E461746C6
:10337000880404D405E039462020B0476D1C641E43
:10338000F9D52846BDE8F0812DE9F0410446002535
:103390001E469046C80301D5302700E02027880448
:1033A00004D505E041463846B0476D1C641EF9D58A
:1033B0002846BDE8F0814A68002A06D00A68531CF6
:1033C0000B6010704868401E486070470A68531CC4
:1033D0000B6010707047000010B56FF00400FFF72D
:1033E00031F80A4800680A49B0FBF1F00949087051
:1033F0000846007800EB4001C1EBC0104FF6FF71AA
:1034000001EAC0000449088010BD0000000000204F
:1034100000127A00280000202A0000200146114AEC
:1034200012884A434FF0E0235A6100229A611A46FB
:10343000126942F001021A6100BF4FF0E0221069E8
:1034400000F001021AB100F48032002AF5D04FF0EA
:10345000E022126922F001024FF0E0231A610022FB
:103460009A6170472A0000200146114A12784A43A7
:103470004FF0E0235A6100229A611A46126942F025
:1034800001021A6100BF4FF0E022106900F0010252
:103490001AB100F48032002AF5D04FF0E022126910
:1034A00022F001024FF0E0231A6100229A61704776
:1034B0002800002010B5002821D0114B0022001F49
:1034C000196803E0814203D80A4649680029F9D106
:1034D00052B11368841A9C4204D1006818441060E9
:1034E000104602E0506000E0186039B102680B1A23
:1034F000934203D10B681A4402604968416010BDD1
:103500005400002010B580200949086000F012F82E
:1035100040200749091F086000F00CF840200449CA
:10352000086000F007F880200149091F086010BDFD
:10353000140C0140002001E0411CC8B20A28FBDB4A
:103540007047000010B5802007490860FFF7F2FFC0
:10355000402005490860FFF7EDFF40200249091DA2
:103560000860FFF7E7FF10BD100C014070B50024A4
:10357000002516E06006040E40200C490860FFF7A5
:10358000D9FF0A480838006800F0800008B1601CC4
:10359000C4B240200549091D0860FFF7CBFF681C35
:1035A000C5B2082DE6DB204670BD0000100C0140BE
:1035B00070B50446002520E004F0800018B180209A
:1035C0000F49086003E080200D49091D0860FFF7DE
:1035D000B1FF40200A490860FFF7ACFF40200849CE
:1035E000091D0860072D02D18020091F08606006B0
:1035F000040EFFF79FFF681CC5B2082DDCDB70BD11
:10360000100C014010B58020094908604020086076
:10361000FFF790FF80200649091D0860FFF78AFF29
:1036200040200349091D0860FFF784FF10BD00001A
:10363000100C014010B58020054908604020091F8A
:103640000860FFF777FF80200149091F086010BD5F
:10365000140C014010B580200C490860FFF76AFF88
:1036600040200A490860FFF765FF084808380068ED
:1036700000F0800008B1012400E00024402003494C
:10368000091D0860FFF756FF204610BD100C0140D1
:103690001FB5FDF7D1FCFDF78DFA03E04FF4FA708A
:1036A000FFF7BCFEFEF7C0FA0028F7D102218448DC
:1036B000FEF70AFC8249486882A1FEF7C7FBFDF7C6
:1036C00039FD0024FAE08148006800287ED0FDF72B
:1036D000A1F9FDF74FFD7E49086008212020FEF783
:1036E00021FEFEF7FBFD0446200C7A490860FEF738
:1036F000F5FD79A17D48FFF79DF975480068FCF755
:10370000F7FDCDE90201734800680090784803781E
:10371000827878A18048FFF7CBF97F497348FFF79B
:1037200089F9674908687C49FEF790FB7BA16F48DF
:10373000FFF780F96E4880781E2803DD0120784964
:1037400008701DE06A480078642803DD022074498F
:10375000087015E05F480068B0F57A7F03D9032050
:103760006F4908700CE06F4959480068FCF7D4FDB8
:1037700003D204206A49087002E0002068490870FA
:1037800067480078052844D2DFE800F00344455B31
:103790007100FDF7FFF864480078614909788842B4
:1037A00001D0FEF7A9F861A201210846FEF708FA48
:1037B0004F488278022306210120FEF7DFF95DA23F
:1037C00001210220FEF7FCF9494800E073E002788D
:1037D000022306211846FEF7D1F958A20121032041
:1037E000FEF7EEF905233B48062102680320FEF7A9
:1037F000C5F954A201210420FEF7E2F9344800681B
:10380000FCF762FD054605232A4606210420FEF743
:10381000B5F946E045E0FDF7C7F8FEF76DF845A2BB
:1038200001210846FEF7CCF9032348480278062117
:103830000120FEF7A3F946A201210220FEF7C0F9FC
:103840002FE0FDF7B1F8FEF757F83CA2012108463A
:10385000FEF7B6F905231F48062102680120FEF78E
:103860008DF93FA201210220FEF7AAF919E0FDF728
:103870009BF8FEF741F833A201210846FEF7A0F9B4
:1038800013480068FCF720FD054602232A4606215E
:103890000120FEF773F936A201210220FEF790F90C
:1038A00000BF00BF1E4800781F490870002007496C
:1038B0000860FDF749F90A20FFF7B0FD03E70000B3
:1038C0003C0000207465737421000000300000206B
:1038D000480000204C0000204F6E654E65745F501C
:1038E00075626C6973680D0A0000000000380140C1
:1038F0003200002074656D703A25643B68756D3A3E
:1039000025643B434F323A25643B6C696768743ADF
:10391000252E326600000000DC0000200D0A0000A9
:103920005000002000007A445100002074656D7042
:103930003A00000068756D3A00000000434F323ACB
:10394000000000006C69673A00000000440000209D
:1039500068756D2077617272696E672100000000E2
:10396000434F322077617272696E67210000000058
:103970006C696768742077617272696E67210000F4
:10398000F0B50B30154D20F007010024144A0FE06C
:1039900003688B420BD38B4205D95E1A43184768E4
:1039A000C3E9006700E04368136002C004E0021D41
:1039B00010680028ECD12046002802D1286808B100
:1039C0000020F0BD064A07481060074A121A22F08C
:1039D0000702C0E9002401202860D7E75800002032
:1039E000540000206401002060030020000000005B
:1039F000000000000000000000000000000000F8CF
:103A000000000000000000333000000000100C0631
:103A1000100C0600000000000000000040C07840CC
:103A2000C0784000043F04043F040400007088FC98
:103A300008300000001820FF211E0000F008F000F0
:103A4000E018000000211C031E211E0000F0088861
:103A5000700000001E2123241927211010160E00CB
:103A6000000000000000000000000000000000E076
:103A7000180402000000000718204000000204188B
:103A8000E00000000040201807000000404080F0E7
:103A9000804040000202010F01020200000000F01D
:103AA000000000000101011F0101010000000000F1
:103AB0000000000080B07000000000000000000066
:103AC00000000000000101010101010100000000EF
:103AD0000000000000303000000000000000000086
:103AE00080601804006018060100000000E0100863
:103AF0000810E000000F102020100F00001010F838
:103B0000000000000020203F202000000070080876
:103B100008887000003028242221300000300888F6
:103B2000884830000018202020110E000000C0201E
:103B300010F8000000070424243F240000F808883F
:103B4000880808000019212020110E0000E01088CC
:103B500088180000000F112020110E0000380808FE
:103B6000C83808000000003F00000000007088080E
:103B700008887000001C222121221C0000E010088F
:103B80000810E0000000312222110F00000000C0E8
:103B9000C000000000000030300000000000008085
:103BA0000000000000008060000000000000804075
:103BB000201008000001020408102000404040408E
:103BC00040404000040404040404040000081020E1
:103BD0004080000000201008040201000070480826
:103BE0000808F0000000003036010000C030C8288E
:103BF000E810E0000718272423140B000000C03849
:103C0000E0000000203C23020227382008F88888C2
:103C100088700000203F202020110E00C0300808CE
:103C200008083800071820202010080008F80808A5
:103C30000810E000203F202020100F0008F888889E
:103C4000E8081000203F20202320180008F888886A
:103C5000E8081000203F200003000000C0300808E2
:103C60000838000007182020221E020008F808006B
:103C70000008F808203F210101213F20000808F832
:103C8000080800000020203F202000000000080855
:103C9000F8080800C08080807F00000008F888C015
:103CA00028180800203F20012638200008F80800C6
:103CB00000000000203F20202020300008F8F800FD
:103CC000F8F80800203F003F003F200008F830C00F
:103CD0000008F808203F200007183F00E0100808FF
:103CE0000810E0000F10202020100F0008F808082E
:103CF0000808F000203F210101010000E010080841
:103D00000810E0000F18242438504F0008F8888865
:103D100088887000203F2000030C30200070880845
:103D2000080838000038202121221C00180808F853
:103D3000080818000000203F2000000008F80800D4
:103D40000008F808001F202020201F0008788800A5
:103D500000C83808000007380E010000F80800F815
:103D60000008F800033C0700073C030008186880BF
:103D70008068180820302C03032C30200838C80035
:103D8000C83808000000203F200000001008080884
:103D9000C83808002038262120201800000000FE26
:103DA000020202000000007F40404000000C30C0D2
:103DB00000000000000000010638C00000020202FE
:103DC000FE000000004040407F00000000000402B0
:103DD00002020400000000000000000000000000DB
:103DE00000000000808080808080808000020204CB
:103DF00000000000000000000000000000008080C3
:103E0000808000000019242222223F2008F8008030
:103E100080000000003F112020110E0000000080F3
:103E200080800000000E1120202011000000008082
:103E30008088F800000E112020103F2000008080B4
:103E400080800000001F222222221300008080F0C8
:103E5000888888180020203F2020000000008080F3
:103E600080808000006B94949493600008F8008038
:103E700080800000203F210000203F200080989893
:103E8000000000000020203F2020000000000080F3
:103E90009898000000C08080807F000008F8000033
:103EA00080808000203F24022D302000000808F888
:103EB000000000000020203F202000008080808043
:103EC00080808000203F20003F20003F80800080D5
:103ED00080800000203F210000203F2000008080E3
:103EE00080800000001F202020201F008080008094
:103EF0008000000080FFA12020110E000000008043
:103F000080808000000E112020A0FF808080800033
:103F10008080800020203F21200001000000808060
:103F2000808080000033242424241900008080E055
:103F3000808000000000001F202000008080000022
:103F400000808000001F202020103F208080800003
:103F50000080808000010E30080601008080008013
:103F6000008080800F300C030C300F000080800038
:103F7000808080000020312E0E3120008080800063
:103F80000080808080818E70180601000080808013
:103F9000808080000021302C2221300000000000B1
:103FA000807C020200000000003F40400000000052
:103FB000FF00000000000000FF0000000002027C83
:103FC000800000000040403F0000000000060101AA
:103FD0000202040400000000000000002F64657667
:103FE000696365412F636F6D6D616E6473000000DE
:103FF0007465737400000000184000080000002081
:104000005C0000000C2B0008744000085C000020DD
:10401000040700001C2B000800A24A040000000056
:104020000000000001020304060708090000000068
:10403000010203040102030406070809020406083A
:104040000000000000000000000000000000000070
:1040500000000000DC3F0008F03F00080000000006
:104060000000000000000000000000000000000050
:04407000000000004C
:04000005080000ED02
:00000001FF
